:020000040800F2
:1000000000BF002061020008334A00086D47000865
:10001000314A0008B11100088550000800000000B6
:100020000000000000000000000000009D0100082A
:100030008D30000800000000F90100089D4D000807
:100040007B0200087B0200087B0200087B0200089C
:100050007B0200087B0200088F3000087B0200084A
:100060007B0200087B0200087B0200087B0200087C
:100070007B0200087B020008CD2F00087B020008ED
:100080007B020008DD2F00087B0200087B020008CD
:100090007B0200087B0200087B0200087B0200084C
:1000A0007B020008814E00087B0200087B020008EA
:1000B0007B0200087B0200087B0200087B0200082C
:1000C0007B0200087B0200087B0200087B0200081C
:1000D0007B020008795000087B0200087B020008C0
:1000E0007B0200087B0200087B0200087B020008FC
:1000F0007B0200087B0200087B0200087B020008EC
:100100007B0200087B0200087B0200087B020008DB
:100110007B0200087B0200087B0200087B020008CB
:100120007B0200087B0200087B0200087B020008BB
:100130007B0200087B0200087B0200087B020008AB
:100140007B0200087B0200087B0200087B0200089B
:100150007B0200087B0200087B0200087B0200088B
:100160007B0200087B0200087B0200087B0200087B
:100170007B0200087B0200087B02000800000000F0
:100180007B0200087B020008DFF80CD000F008FEBC
:10019000004800475158000800BF00202C4B196848
:1001A0000868B0E8F04F80F30988BFF36F8F4FF015
:1001B000000080F3118870470000000008480068C4
:1001C000006880F308884FF0000080F3148862B65E
:1001D00061B6BFF34F8FBFF36F8F00DF00BF00BF6B
:1001E00008ED00E0DFF80C00016841F470010160E7
:1001F000704700BF88ED00E0EFF30980BFF36F8F19
:10020000134B1A681EF0100F08BF20ED108A20E96A
:10021000F04F106009B44FF0500080F31188BFF325
:100220004F8FBFF36F8F06F049F94FF0000080F356
:10023000118809BC19680868B0E8F04F1EF0100F6B
:1002400008BFB0EC108A80F30988BFF36F8F704746
:100250002C000020EFF305807047000040BA704783
:100260000648804706480047FEE7FEE7FEE7FEE750
:10027000FEE7FEE7FEE7FEE7FEE7FEE7654E000865
:10028000890100082DE9F05F90460D460446960866
:1002900029D000BF54F8042B54F8041B54F8040B65
:1002A00054F8043B22FB02F221FB01FB20FB00FA85
:1002B00023FB03F9AF1C2946501400F075FBBD1C4D
:1002C0004FEA6B40394600F06FFBAF1C4FEA6A40C3
:1002D000294600F069FBBD1C4FEA6940394600F031
:1002E00063FB761ED6D118F0030608BFBDE8F09F69
:1002F00054F8040B20FB00F02946AD1C401400F01C
:1003000053FB761EF4D1BDE8F09F000010B40180CD
:100310001A4C446082704FF0000CC370B1F5807FBE
:100320001AD004DC102922D040291AD005E0B1F5FA
:10033000806F0CD0B1F5805F04D04FF0FF3C10BC53
:100340006046704701218181C1810D490DE0042182
:100350008181C1810B4908E010218181C1810A4955
:1003600003E040218181C18108498160E7E74FF4C2
:1003700080718181C18106498160E0E78079000850
:1003800080710008867100089E710008FE710008E7
:100390007E7300082DE9FF4F86B04FF0000C0798E0
:1003A000069A800802EB800101EB80050290009024
:1003B00005EB8004E646166896FA2EF696FA2EF8B5
:1003C0002E6896FA2EF696FA2EF698FA16F7D8FABE
:1003D00016F6D1F8008098FA2EF898FA2EF8D4F88C
:1003E000009099FA2EF999FA2EF998FA19F897FAD5
:1003F00028F942F8049BD7FA18F7DDF8208008EBBB
:10040000CC08D8F8008028FB07F94FEA194948FBC7
:1004100017F80F6897FA2EF797FA2EF7C9EA080827
:1004200041F8048BD4F8008098FA2EF898FA2EF848
:10043000D7FA18F8A6FA18F7E6FA18F6DDF82080C9
:1004400008EB8C08D8F8008028FB06F94FEA194918
:1004500048FB16F6C9EA060645F8046B089E0CEB45
:100460004C0806EB8806366826FB07F84FEA184862
:1004700046FB17F6C8EA060644F8046B9C44401E87
:1004800099D1980009900298059004287ED9009887
:10049000810800910021049101910099491E039166
:1004A000049A0899079D01EB8201019CD1F8008014
:1004B0000899AC4201EBC20102EB42020F680899B5
:1004C00001EB8201099AD1F800900499114404913A
:1004D000019A069901EB82030099009A03EB8101CE
:1004E00001EB820C0CEB820245D21D68DCF800A007
:1004F00095FA1AF6D5FA1AF5D1F800A0D2F800B09C
:100500009AFA1BFA96FA2AFB9BFA2EFBC3F800B064
:1005100003EB8003D6FA2AF627FB06FA4FEA1A4ABB
:1005200047FB16FB0E68CAEA0B0AC1F800A0D2F816
:1005300000A001EB8001D6FA1AFAA5FA2AF6E5FA2C
:100540002AF528FB05FA4FEA1A4A48FB15F5CAEACC
:100550000505CCF800500CEB800C29FB06F52D0CA2
:1005600049FB16F6C5EA06051560079D044402EB33
:100570008002AC42B9D30199039A491C019191427E
:100580008ED9099880000990059800E004E0800861
:10059000059004283FF67BAF029B069951F804CBE7
:1005A00051F8042B51F8044B08689CFA14F592FAA0
:1005B00010F695FA26F641F80C6C92FA10F6D5FA78
:1005C00026F541F8085CDCFA14FCD2FA10F0ECFADB
:1005D00020F241F8042CACFA20F041F8040B5B1E29
:1005E000DCD10AB0BDE8F08F2DE9FF4F86B04FF0A7
:1005F000000C0798069A800802EB800101EB800549
:100600000290009005EB8004E646166896FA2EF6F6
:1006100096FA2EF82E6896FA2EF696FA2EF698FA94
:1006200016F7D8FA16F6D1F8008098FA2EF898FA4C
:100630002EF8D4F8009099FA2EF999FA2EF998FA32
:1006400019F897FA28F942F8049BD7FA18F7DDF859
:10065000208008EBCC08D8F8008048FB07F94FEA67
:10066000194928FB17F80F6897FA2EF797FA2EF713
:10067000C9EA080841F8048BD4F8008098FA2EF8EB
:1006800098FA2EF8D7FA18F8E6FA18F7A6FA18F634
:10069000DDF8208008EB8C08D8F8008048FB06F9CC
:1006A0004FEA194928FB16F6C9EA060645F8046B15
:1006B000089E0CEB4C0806EB8806366846FB07F8EC
:1006C0004FEA184826FB17F6C8EA060644F8046BFA
:1006D0009C44401E99D198000990029805900428E6
:1006E0007ED9009881080091002104910191009920
:1006F000491E0391049A0899079D01EB8201019C10
:10070000D1F800800899AC4201EBC20102EB420231
:100710000F68089901EB8201099AD1F800900499B9
:1007200011440491019A069901EB82030099009A01
:1007300003EB810101EB820C0CEB820245D21D68B8
:10074000DCF800A095FA1AF6D5FA1AF5D1F800A04F
:10075000D2F800B09AFA1BFA96FA2AFB9BFA2EFB03
:10076000C3F800B003EB8003D6FA2AF647FB06FA7B
:100770004FEA1A4A27FB16FB0E68CAEA0B0AC1F8B1
:1007800000A0D2F800A001EB8001D6FA1AFAE5FA2F
:100790002AF6A5FA2AF548FB05FA4FEA1A4A28FB79
:1007A00015F5CAEA0505CCF800500CEB800C49FBA6
:1007B00006F52D0C29FB16F6C5EA06051560079D02
:1007C000044402EB8002AC42B9D30199039A491C5C
:1007D000019191428ED9099880000990059800E016
:1007E00004E08008059004283FF67BAF029B069941
:1007F00051F804CB51F8042B51F8044B08689CFACB
:1008000014F592FA10F695FA26F641F80C6C92FA65
:1008100010F6D5FA26F541F8085CDCFA14FCD2FA99
:1008200010F0ACFA20F241F8042CECFA20F041F878
:10083000040B5B1EDCD10AB0BDE8F08F70B5044636
:1008400080780D462188A3896268012828460DD04A
:10085000FFF7A0FDE078012818BF70BDE28921886C
:100860002846A368BDE8704000F0C8B9FFF7BCFE99
:10087000F0E700002DE9F003002430F902CBA1F1EC
:10088000010825465FEA98061BD000BF30F9027BBD
:1008900030F9029BBC45BCBFBC46651CCC45BCBF07
:1008A000CC46A51C30F9027B30F9029BBC45BCBF8D
:1008B000BC46E51CCC45BCBFCC46251D241D761E80
:1008C000E4D118F0030413D02646B4F1004F15D23A
:1008D000002CC8BF00270BDDB0F90080E04502DD29
:1008E000CD19C4462D1B801C761E07F10107F3D1DC
:1008F000A2F800C01D60BDE8F003704730F9026B3C
:10090000B445BCBFB4460D1B641EF7D1F0E710B46C
:10091000930812D0B3F1004F32D24FF0010C012BEB
:100920000BDB50F8044B41F8044B50F8044B0CF12E
:10093000010C41F8044B6345F3DA12F0030204BFE3
:1009400010BC7047B2F1004F25D2002ADCBF10BCAA
:100950007047801E891E12F0010F03D030F8023F4D
:1009600021F8023F520804BF10BC704743884B80F7
:1009700030F8043F21F8043F521EF7D110BC7047F5
:1009800050F804CB41F804CB50F804CB41F804CB29
:100990005B1EF5D1D1E730F8023B21F8023B521E35
:1009A000F9D110BC7047000010B400286ADDB0FA1D
:1009B00080F2113A02F00103002B0EBF9040531E4B
:1009C000984000B200EE100ADFED320A324CB8EE69
:1009D000C00A4FEA600C20EE200ADFED300A10EE6C
:1009E000103AA4EB630300EE103A20EE200ABDEEAD
:1009F000C00A10EE103A1BB213FB03F44FEAE434C2
:100A000014FB0CF44FEAE434C4F5405404FB03F344
:100A10004FEAE3334FEA83031BB213FB03F44FEABD
:100A2000E43414FB0CF44FEAE434C4F5405404FB02
:100A300003F34FEAE3334FEA83031BB213FB03F4E0
:100A40004FEAE43414FB0CFC4FEAEC3CCCF5405C80
:100A50000CFB03F34FEAE3334FEA830310FB03F08D
:100A60004FEAE0304FEA400000B218BF521E02EBDE
:100A7000D2724FEA620240FA02F0088010BC4FF0D6
:100A8000000070474FF00000088010BC4FF0FF30AE
:100A90007047000000000038DF59375F00008046D3
:100AA0002DE9F0014E0801244FF0000C04EB510732
:100AB0006146A6F102082CE061452AD200EBCC0584
:100AC00000EBC104D5ED000A94ED000AC4ED000A64
:100AD00085ED000AD5ED010A94ED010AC4ED010A85
:100AE00085ED010ACC1900EBC4050CEB070400EB03
:100AF000C40495ED000AD4ED000AC5ED000A84EDAA
:100B0000000AD4ED010A95ED010AC5ED010A84ED54
:100B1000010A00EBC104B44400EBCC0C94ED020AD2
:100B2000DCED000A891CC4ED020A8CED000ADCED44
:100B3000010A94ED030AC4ED030A8CED010AB3F82F
:100B400000C089B203EB42034145B5D9BDE8F001CD
:100B500070472DE9F0074D0801244FF0000C04EB1D
:100B600051066146A5F102082BE0614529D250F8F3
:100B7000314050F83C7040F8317040F83C4000EB98
:100B8000C10900EBCC04D9F80470D4F804A0C9F86A
:100B900004A067608C190CEB060750F8349050F8ED
:100BA00037A040F834A040F8379000EBC40400EBC5
:100BB000C707D4F80490D7F804A0C4F804A0C7F875
:100BC000049000EBC104AC44A76850F83C90C4F812
:100BD000089040F83C7000EBCC0CE768DCF804901F
:100BE000C4F80C90CCF80470B3F800C0891C03EB77
:100BF00042034145B9D9BDE8F00770472DE9F00F30
:100C000001244F0804EB51084FF0000C7C0804BF8E
:100C1000BDE8F00F7047014600EB8805002614E0A0
:100C2000BCEB460F11D950F82CA0D1F80090C1F8B8
:100C300000A040F82C900CEB0809D5F800A050F863
:100C400029B0C5F800B040F829A0BC4451F8049F71
:100C500050F82CA041F804AB40F82C90B3F800C039
:100C600003EB4203641E05F1080506F10106D7D126
:100C7000BDE8F00F70472DE9F05F05460020924671
:100C80009B4688460646814640241BE0284641464E
:100C90004746224600F053F853465A46C01A91413F
:100CA00010D311461846224600F03AF82D1A67EB89
:100CB00001084F4622460120002100F031F817EBD1
:100CC00000094E41201EA4F10104DFDC48463146F4
:100CD0002A464346BDE8F09F40EA01039B0703D044
:100CE00009E008C9121F08C0042AFAD203E011F86B
:100CF000013B00F8013B521EF9D27047D2B201E02D
:100D000000F8012B491EFBD270470022F6E710B510
:100D100013460A4604461946FFF7F0FF204610BD69
:100D2000202A04DB203A00FA02F1002070479140AB
:100D3000C2F1200320FA03F3194390407047202AA0
:100D400004DB203A21FA02F00021704721FA02F375
:100D5000D040C2F12002914008431946704710B5B7
:100D600041000CD0C0F3C751962908DC7E2909DC6C
:100D700006DB410204D000F0004040F07E5010BD80
:100D8000002010BDC1F19604C4F1200100FA01F168
:100D9000E04000F017F8A04010BD002070470000B0
:100DA000064C074D06E0E06840F0010394E80700B8
:100DB00098471034AC42F6D3FFF7EAF9D8AA0008F6
:100DC000F8AA00080029A8BF7047401C490008BFC6
:100DD00020F00100704710B4B0FA80FC00FA0CF06B
:100DE00050EA010404BF10BC704749B1CCF12004A3
:100DF00021FA04F411FA0CF118BF01212143084330
:100E0000A3EB0C01CB1D4FEA00614FEA102042BF5B
:100E1000002010BC704700EBC35010440029A4BF51
:100E200010BC7047401C490008BF20F0010010BCF6
:100E3000704770B58D1810F8014B14F0030201D102
:100E400010F8012B231106D110F8013B03E010F834
:100E5000016B01F8016B521EF9D1ABB110F8012BF7
:100E600004F00C048A1A0C2C03D0A2EB84129B1CF5
:100E700008E010F8014BA2EB0422F8E712F8014B4E
:100E800001F8014B5B1EF9D5A942D4D3002070BDF7
:100E90001FB5684602F04AFF012000900002019051
:100EA0001E200290684602F089FF1FBD10B50D4953
:100EB00040F8181FCA6922F48062CA61816C082256
:100EC000890041610021C0E90621C16001614FF440
:100ED000407141602021816002F08CFC002800D02C
:100EE000012010BD0038004030B58BB0882005F0DF
:100EF0004BF804464FF4FA50206610200121C4E953
:100F000019010220C4E91B10FFF7C2FF204600F0C0
:100F1000B5F81A48A0611A4820611C221949684690
:100F2000FFF7DAFE206901902146684604F0A0FD33
:100F300015490968C86004F11800054602F056FC1E
:100F400010B9284600F022F82046FFF7AFFF002531
:100F50000795012107A8089504F010FD2060099568
:100F600009A80A9504F0A7FC606000220421012072
:100F700005F064FBA0600BB0204630BD0038004097
:100F80003511000848710008000000202DE9F041EB
:100F90000546344886B04FF00008026842F48042AB
:100FA000026000682F4C00F48040103C05902068DF
:100FB00040F002002060206800F0020005902068E8
:100FC00040F0040020602068052700F00400059030
:100FD0000220CDE9010846020096CDE903076946E3
:100FE000214802F019FA08200090694604971F482A
:100FF00002F012FA206840F40010206020681C49BA
:1010000000F400100590286888421FD11949C214C5
:10101000C1F80480C1F80880C1F80C80C1E90462FD
:1010200042148A618215CA615202C1E9082803226A
:10103000C1E90A281048C1F830800860E963084611
:101040008D6302F039F80B4802F038F905220F21C0
:101050000E2002F039FE0E2002F028FE06B0BDE898
:10106000F0810000403802400004024000080240C5
:1010700000380040D844002058600240F8B50646C9
:101080001C4800252F46016841F48051016000682A
:1010900000F48050009029E005EB450000EB0511BD
:1010A000154800EB810420F82170678013486060C8
:1010B000B6F870006081B6F86C002081204603F01D
:1010C000CFFC306E4FF47A71B0FBF1F30A4A05EBB6
:1010D0004500983202EB40014B8020238B80042393
:1010E00022F81030204603F051FD6D1CF06EA8422E
:1010F000D2D8F8BD3038024038450020D6A3707DE4
:1011000010B5A0B000226B4630F8124064BA23F844
:101110001240521C402AF7D3034A184603F08AFCB7
:1011200020B0002010BD00003845002092B21830D9
:1011300002F076BC08B5044680221A49FFF7F6FF94
:101140000020C4E92000C4E91E002075451E294680
:10115000206804F05BFC0028F9D12946606804F09F
:10116000DBFB124910484968002300EB4100009066
:101170001A466946A06805F0FDFA012806D0F4E990
:101180002001401C41F1000164E82001D4E91E0166
:10119000401C41F10001C4E91E01606804F094FBA9
:1011A000D5E70000DC450020FC4600208C00002034
:1011B000FEE70000144A136823F001031360134A8A
:1011C000126801234AB9124A1268C2F30B02B2F53F
:1011D0008A6F04BF0F4A136009D00F4A9360936867
:1011E000002BFCD11060106888420AD007E0136819
:1011F000002BFCD1094A10601068884201D0002001
:101200007047012070470000002000E0002004E04B
:101210000010005C084C025800300240004C02589C
:101220002DE9F74F9CB006461E980025D0E90440F2
:1012300017901E9880691B901E98C06912901E9886
:10124000806802901E98C06801901E98006B1A90EA
:101250001E98C08C16901E98006A19901698002847
:1012600040F36F81D6E9000706F108010DF1280966
:10127000D1E900AB1036FEF7F1FF80463846FEF7A5
:10128000EDFF07465046FEF7E9FF07905846FEF788
:10129000E5FF8646B54A08F0FF0009F1020C52F856
:1012A000201012980B18C3F30900ADF828004FEA7C
:1012B0001821980ACBB2090A52F823301844C0F317
:1012C0000903ADF82A300A9B4FEA334ACBB252F8F1
:1012D000233003EB9023080AC3F30901ADF82C1067
:1012E00052F8200000EB9320C0F30903ADF82E3034
:1012F0000B990CF106034FEA3149810AF8B252F812
:1013000020000144C1F3090C380AADF830C000F0E8
:10131000FF0C000A52F82CC00CEB9121C1F3090C10
:10132000ADF832C0DDF830C04FEA3C4800F0FF0CA9
:10133000000A52F82CC00CEB9121C1F3090CADF856
:1013400034C052F8200000EB9120C0F30901ADF841
:10135000361003F10C010D9B4FEA3347830A0798BF
:10136000C0B252F82000034407984FEA102CC3F390
:101370000900ADF83800980A0CF0FF0352F823304A
:1013800018444FEA1C23C0F3090C03F0FF0BADF81F
:101390003AC052F82BB0DDF838C00BEB90201B0A96
:1013A000C0F3090B21F802BB52F823304FEA3C4C42
:1013B00003EB9020C0F309034FEA902B0EF0FF00DF
:1013C00021F8023B52F820000F9B83444FEA1E2075
:1013D000CBF3090E21F802EB00F0FF0E4FEA334386
:1013E00052F82EE00EEB9B2B4FEA102ECBF30900A8
:1013F00021F8020B00914FEA9B210EF0FF0B4FEA00
:101400001E2E52F82BB0CDF860E08B440099109856
:10141000CBF3090EA1F800E0DDF860E000994FEA97
:10142000304052F82E2002EB9B22C2F3090BA1F8A8
:1014300002B0920A11991292DFF834B1019A4FEA80
:1014400031412AFB0B22DFF82CB129FB0B22DFF8FC
:1014500028B128FB0B22DFF824B127FB0B22DFF891
:1014600020B12CFB0B22DFF81CB123FB0B22DFF891
:1014700018B120FB0B224FF4803B21FB0B2EDFF831
:101480000CB1029A2AFB0B22DFF804B129FB0B22D4
:10149000DFF800B128FB0B22DFF8FCB027FB0B22A2
:1014A0004FEA3B4B2CFB0B22DFF8F0B023FB0B2267
:1014B000DFF8ECB020FB0B22DFF8E8B021FB0B22B9
:1014C000019201222AFB02F2DFF8DCA029FB0A22AA
:1014D000DFF8D89028FB0922DFF8D48027FB082208
:1014E000344F2CFB0722DFF8D0C023FB0C22334BF8
:1014F00020FB0320324A21FB02000290AEF580104F
:1015000017992218531A19994FEAE37CA3FB014754
:101510000CFB0171002203FB021114F1004241F1A6
:10152000000117904C001A98E10151FB10F01D9931
:1015300020F38F0021F8150016986D1CA8423FF784
:1015400091AE1E98029981601E990198C8601E99FB
:101550001298C8611E9804611E99179848611E99D7
:101560001B9888611FB00020BDE8F08FB0000020FC
:10157000690078004E005B003700420024002D0017
:1015800015001C000A000F000300060096008800EA
:10159000AC00A200BA00B400C000BE00B400BA00A3
:1015A000A200AC0088009600060003000F000A00AD
:1015B0001C0015002D002400420037005B004E0087
:1015C000780069002DE9F74F9AB0044610690B9036
:1015D0005069169090691990D0690C9090680290AB
:1015E000D06801901546106B1890E88C00270028F1
:1015F00040F3BF81688D0DF13809012800F0CA81E0
:10160000C0B200EB40012378625C14F800C003EB29
:10161000026214F810301B0403EB0C2302EB0308E6
:10162000C0EBC00214F8203014F802C014F81220E5
:1016300003EB0C6C14F8113014F821101E0400EBAD
:101640008003120414F803A014F8133006EB0A26E2
:101650000CEB060A00EB400C0CEBC00C14F83060ED
:1016600014F80CC01B0406EB0C6C00EBC006A65D66
:1016700003EB06230CEB030BC0EB0013E35C01EB65
:10168000036100EB800303EBC003E35C04EB001495
:1016900002EB03228E1800BFCD4808F0FF0150F87E
:1016A00021200C9911444FEA1822C1F3090302F0DA
:1016B000FF0CADF8383050F82CC009F102030CEBE8
:1016C0009121C1F3090CADF83AC0DDF838C0120A17
:1016D0004FEA3C4902F0FF0C120A50F82CC00CEB08
:1016E0009121C1F3090CADF83CC050F8222002EB67
:1016F0009121C1F30902ADF83E200F9A4FEA32481A
:101700000AF0FF0250F8222002EB9121C1F3090CEC
:101710004FEA1A22ADF840C002F0FF0C120A50F84E
:101720002CC002F0FF0A0CEB9121C1F3090CADF8BB
:1017300042C050F82AA0120A0AEB9121C1F3090A0B
:10174000ADF844A050F822200BF0FF0A02EB9122E2
:10175000C2F30901ADF8461050F82AA003F11201B6
:101760000AEB922A4FEA1B22CAF3090BADF848B0E4
:1017700002F0FF0B119B50F82BB0DDF840C00BEBD3
:101780009A2A4FEA122BCAF309024FEA9A2ACDF895
:1017900030A0ADF84A200BF0FF0A129A50F82AE068
:1017A000DDF830A04FEA3C4C4FEA33434FEA324277
:1017B000F2444FEA1B2BCAF3090E21F802EB50F852
:1017C0002BB00BEB9A2BCBF3090A21F802AB4FEAB3
:1017D0009B2BCDF830B006F0FF0BDDF84CA050F895
:1017E0002BE0DDF830B0360AF344CBF3090E21F8D4
:1017F00002EB4FEA9B2BCDF830B006F0FF0B4FEA1F
:101800003A4A50F82BE0DDF830B0F3444FEA162E98
:10181000CBF3090621F8026B009114994FEA314687
:101820004FEA9B210EF0FF0B4FEA1E2E50F82BB013
:10183000CDF85CE08B440099CBF3090EA1F800E0F1
:10184000DDF85CE0009950F82E0000EB9B2BCBF309
:10185000090048804FEA9B2115980C91DFF874B17C
:1018600001994FEA304029FB0B11DFF86CB128FBDE
:101870000B11DFF868B12CFB0B11DFF864B123FB0F
:101880000B11DFF860B122FB0B11DFF85CB12AFB12
:101890000B11DFF858B126FB0B114FF4803B20FBF6
:1018A0000B1EDFF84CB1029929FB0B11DFF844B194
:1018B00028FB0B11DFF840B12CFB0B11DFF83CB11A
:1018C00023FB0B114FEA3B4B22FB0B11DFF830B12E
:1018D0002AFB0B11DFF82CB126FB0B11DFF828B126
:1018E00020FB0B110191012129FB01F1DFF81C9173
:1018F00028FB0911DFF818812CFB0811DFF814C14F
:1019000023FB0C11444B22FB0311444A2AFB021116
:10191000434A26FB0211434A20FB02100290296A27
:10192000AEF58010A1B10B9A4FF0000C1318169A67
:1019300016909A1AA2FB0168D31703FB018102FBE0
:101940000C1116F1004241F1000149000B910846CB
:101950001899C00150FB11F0298D20F38F0001FB75
:1019600007F21B997F1C21F81200E88CB8423FF760
:1019700041AE0298A8600198E8600C98E8610B9865
:101980002861169868611998A8611DB00020BDE80B
:10199000F08F00BF04F10801D4E9008AD1E900B654
:1019A00095F83400103410F0200F3FF475AE404627
:1019B000FEF754FC80465046FEF750FC82465846DF
:1019C000FEF74CFC83463046FEF748FC064663E6CD
:1019D000B0000020690078004E005B003700420034
:1019E00024002D0015001C000A000F000300060053
:1019F00096008800AC00A200BA00B400C000BE008F
:101A0000B400BA00A200AC008800960006000300F3
:101A10000F000A001C0015002D00240042003700B2
:101A20005B004E00780069002DE9F74F14468146AF
:101A3000D4E9056086B015690490D4E902A0D2F813
:101A40001CB00390106B0290D08C0090106A019033
:101A500000984FF00008002843DD00BF59F8020B42
:101A6000FEF7FCFB2649C2B2C0F3072051F8222042
:101A700051F820005A4400EB9221C2F30903C1F34C
:101A8000090063F30F074FEA912B60F31F471D49CD
:101A90004FEA374020FB01A11B4A20FB02FAA1F5C7
:101AA000006029188B1B01994FEAE37CA3FB0156C8
:101AB0000CFB0161002203FB021115F1004241F110
:101AC000000106464D000298290451FB10F00799C9
:101AD00020F38F0021F81800009808F10108404514
:101AE000BCDCC4F808A00398C4F81CB06661C4E963
:101AF00003050498A06109B00020BDE8F08F000044
:101B0000B000002001000300030001002DE9F74FA1
:101B100014460646D4E9045084B04FF00008009003
:101B200090690390D4E90290D2F81CA00290106B47
:101B30000190D08CD2F834B0002852D9608D0128A1
:101B40005ED0C1B23078725C06EB410600EB022039
:101B50002F49C2B2C0F3072051F8222051F82000CB
:101B6000524400EB9220C2F30903C0F3090163F36E
:101B70000F074FEA902A61F31F4726484FEA374183
:101B800021FB0090244A21FB02F9A0F500601BF024
:101B9000100F13D000992A18511A236A4FEAE17CDA
:101BA000A1FB035E0CFB03E3002201FB023115F1F4
:101BB000004241F100014D000090284601040198C7
:101BC00051FB10F0218D20F38F0001FB08F20599E5
:101BD00021F8120008F101001FFA80F8E08C40455E
:101BE000ACD8C4F808900298C4F81CA0C4E9030556
:101BF000009860610398A06107B00020BDE8F08FF5
:101C000056F8020B1BF0200F18BFFEF727FB9FE7CB
:101C1000B000002001000300030001002DE9F74F90
:101C2000D2E9041384B0D2F818C0CDF80CC0D2E9C0
:101C30000256D2F830C0D769CDF808C0B2F8268075
:101C4000CDF80080D2F820C0CDF804C04FF0000CD1
:101C5000B8F1000FC8BF4FF0000B64DD1CF0010F9E
:101C60006CD090F8028090F803904FEA084808EB97
:101C7000092810F8049BC1444FEA9728354F09F012
:101C8000FF0A4FEA192957F82AA0D044C8F3090AD5
:101C90006AF30F0409F0FF0AC9F3072957F82AA0CD
:101CA00057F829700AEB9828C8F3090A6AF31F4409
:101CB00007EB9827DFF8A0904FEA344AC7F30908EA
:101CC0002AFB0969254E2AFB065608EB480506EB58
:101CD00045064FF001082AFB08F84544A9F5D858F5
:101CE0004144CB1A01994FEAE379A3FB01AE09FB0A
:101CF00001E103FB0B111AF1004341F100014346DE
:101D00004900DDF808804FEA813959FB18F8DDF801
:101D1000149028F38F0829F81C80DDF800800CF15E
:101D2000010CC4459ADBD761C2E90413C2E902562B
:101D30000398906107B00020BDE8F08F90F8038011
:101D400010F8019B4FEA084808EB092810F8019B9E
:101D500091E70000B000002001000300070006002A
:101D60002DE9F74FD2E9055183B0D2F810C00291A6
:101D7000D2E90267D2F81C80116B0191516B00917E
:101D8000D18C0023002988BF4FF0000A72D9518DF1
:101D900001297CD0C9B210F8119010F801B04FEAB7
:101DA000094909EB0B2B90F8009001EB4101D94454
:101DB00000EB0100484909F0FF0B4FEA192951F8DF
:101DC0002BB00BEB9828C8F3090B6BF30F0409F049
:101DD000FF0BC9F3072951F82BB051F829100BEB71
:101DE0009828C8F3090B6BF31F4401EB9828DFF820
:101DF000EC904FEA344BC8F309012BFB0979384FBB
:101E00002BFB076601EB410106EB410701262BFB8B
:101E100006F60E44A9F5D851DDF8009019F0100F20
:101E200014D08C44ACEB0505D2F820C04FEAE5791C
:101E3000A5FB0CBE09FB0CEC05FB0ACC1BF1004515
:101E40004CF1000C4FEA4C0C0D4661464FEA8139CB
:101E5000019959FB11F1B2F82890DDF810B009FB97
:101E600003F921F38F012BF81910591C8BB2D18C77
:101E700099428CD8C2F81C80C2E904C5C2E9026745
:101E80000298906106B00020BDE8F08FFFE700994E
:101E900011F0200F16D013F0010F09D0817890F8BF
:101EA0000390090401EB092110F8049B894481E7A0
:101EB000C17810F8019B090401EB092110F8019B7E
:101EC000894477E7817890F80190090401EB0921B2
:101ED00010F8039BEAE70000B000002001000300B7
:101EE000070006002DE9F74F86B0824608984FF0AC
:101EF0000008D0E90445806904900898D0F81C9047
:101F0000D0E902B000900898006B03900898C08C4C
:101F100001900898006A02900198002869DD00BFCE
:101F20005AF8040BFEF79AF90146C3B23B48090A76
:101F300050F8233003EB9922C2F3090363F30F0631
:101F4000CBB250F8233003EB92220B0A03F0FF0CC4
:101F5000C2F3090150F82CC01B0A0CEB922250F876
:101F60002300C2F3090C00EB92296CF30F07C9F3AD
:101F7000090061F31F4660F31F47294B009A4FEA9F
:101F800036414FEA374021FB03224FF4803320FBD8
:101F90000322244B21FB03B3DFF88CC020FB0C335E
:101FA0000093012321FB03F1204B20FB031BA2F52F
:101FB000804021184A1B02994FEAE27CA2FB0145AE
:101FC0000CFB0151002302FB031114F1004241F10B
:101FD000000105464C000398610351FB10F007997E
:101FE00020F38F0021F81800019808F101084045FE
:101FF00096DC0898C0F808B008990098C86008985E
:10200000C0F81C90089804610898456108990498E4
:10201000886109B00020BDE8F08F0000B00000200A
:10202000030006000C000A000A000C000600030072
:102030002DE9F74F86B00546D2F810B050690090F0
:10204000906914460490D4E902A0D2F81C90019043
:10205000106B0390506B0290D08C4FF0000800285A
:102060007DD9608D01287BD0C1B201EB41002A7877
:10207000285C6B5C02EB006015F8112005EB810514
:10208000120402EB032210444649C3B2000A51F87D
:10209000233003EB9922C2F3090363F30F06C3B2A3
:1020A00051F8233003EB9223020A02F0FF0CC3F332
:1020B000090051F82CC0120A0CEB932351F822109E
:1020C000C3F3090C01EB93296CF30F07C9F3090162
:1020D00060F31F4661F31F47334B019A4FEA3640C6
:1020E0004FEA374120FB03224FF4803321FB0322C8
:1020F0002E4B20FB03A3DFF8B8C021FB0C33019368
:10210000012320FB03F02B4B21FB030A0299A2F5CC
:10211000804011F0100F15D000990BEB0002511AFE
:10212000236A4FEAE17CA1FB03BE0CFB03E3002220
:1021300001FB02311BF1004241F100014900009016
:102140008B4608464103039851FB10F0218D20F384
:102150008F0001FB08F2079921F8120001E008E066
:1021600016E008F101001FFA80F8E08C40453FF6C8
:1021700078AFC4F808A00198C4F81C90C4E9030B18
:10218000009860610498A06109B00020BDE8F08F5C
:10219000029955F8040B11F0200F18BFFEF75EF8F6
:1021A00072E70000B0000020030006000C000A00E7
:1021B0000A000C00060003002DE9F74F92B0044618
:1021C00014984FF0000AD0E9045680690F901498D3
:1021D000D0F81CB0806802901498C06801901498E0
:1021E000006B10901498C08C09901498006A0E909F
:1021F000099800287EDD00BF54F8040B54F8021B38
:102200000491FEF72BF800900498FEF727F8034698
:1022100000995448C9B250F8211001EB9B2C009949
:102220000A0ACCF3090161F30F074FEA9C2102F07F
:10223000FF0C50F82CC061444FEA122C0CF0FF0B3D
:10224000C1F3090250F82BB04FEA1C2C0BEB912183
:10225000C1F3090B6BF30F0850F82CC003F0FF0B10
:102260000CEB912CCCF3090150F82BB0C3F30723EE
:102270000BEB9C2CCCF3090B50F823006BF30F09EC
:1022800000EB9C2BCBF3090062F31F4761F31F485F
:1022900060F31F49DFF8D0C0019B4FEA37424FEA95
:1022A00038414FEA394022FB0C33DFF8C0C021FB34
:1022B0000C334FF4803C20FB0C33DFF8B4E0DDF846
:1022C00008C022FB0ECC4FF01B1E21FB0ECCDFF80A
:1022D000A4E020FB0ECCCDF804C04FF0010C22FB93
:1022E0000CF2DFF894C021FB0C21244A20FB0210E1
:1022F000029000E022E0A3F5584029188A1B0E99AD
:102300004FEAE27CA2FB01560CFB0161002302FBB9
:10231000031115F1004241F1000106464D001098ED
:10232000E90251FB10F0139920F38F0021F81A00F5
:1023300009980AF1010A50453FF75EAF14990298D7
:10234000886014990198C8601498C0F81CB014985B
:1023500005611498466114990F98886115B00020A2
:10236000BDE8F08FB00000200A000F000300060057
:102370001900150015001900060003000F000A00DF
:102380002DE9F74F90B005461069069050690B9003
:1023900090690F90D2F81CA090680290D0680190CC
:1023A000106B0E901446506B0D90E08C4FF00009AE
:1023B00000287DD9608D01287BD0C0B200EB4001A0
:1023C0002A786B5C15F800C002EB036215F8103038
:1023D0001B0403EB0C2302EB030B15F8202000EB8E
:1023E0008000285C05EB410502EB0020CDF81000D1
:1023F00063480BF0FF0250F8222002EB9A21C1F350
:1024000009034FEA1B2263F30F06D3B2120A50F8F6
:10241000233002F0FF0C03EB9123C3F3090150F8C2
:102420002CC0120A0CEB9323C3F3090C6CF30F07B7
:1024300050F82220DDF810C002EB93230CF0FF0CC3
:10244000C3F3090250F82CC061F31F460CEB932331
:10245000DDF810C0C3F3090ACCF3072C6AF30F08A8
:1024600050F82C0062F31F4700EB932ACAF30900CF
:1024700060F31F48DFF80CC1019B4FEA36414FEA79
:1024800037424FEA384021FB0C33DFF8FCC022FB17
:102490000C334FF4803C20FB0C33DFF8F0B0DDF858
:1024A00008C021FB0BCC4FF01B1B22FB0BCC01E027
:1024B00042E051E0DFF8D8B020FB0BCCCDF804C0EF
:1024C0004FF0010C21FB0CF1DFF8C8C022FB0C110E
:1024D000314A20FB02100D990290A3F5584011F0EB
:1024E000100F15D0069900230A180B99511A226A69
:1024F0004FEAE17CA1FB02BE0CFB02E201FB0321DF
:102500001BF1004241F10001490006910B90084681
:10251000C1020E9851FB10F0218D20F38F0001FBBA
:1025200009F2119921F8120009F101001FFA80F94E
:10253000E08C48453FF63EAF0298A0600198C4F891
:102540001CA0E060069820610B9860610F98A06164
:1025500013B00020BDE8F08F55F804BB55F8020B0E
:1025600004900D9810F0200F3FF442AF5846FDF74D
:1025700075FE83460498FDF771FE049038E700006D
:10258000B00000200A000F0003000600190015002B
:1025900015001900060003000F000A002DE9F74F8F
:1025A00094B0824616984FF00009D0E904400F908D
:1025B0001698806912901698D0F81CB08068029026
:1025C0001698C06801901698006B11901698C08CF0
:1025D0000A901698006A10900A9800287EDD00BFC5
:1025E000FAE802010091FDF739FE04900098FDF72A
:1025F00035FE0146049A6948D2B250F8222002EB17
:102600000B0C049A130ACCF3090262F30F054FEA8C
:102610009C2203F0FF0C50F82CC062444FEA132CAC
:102620000CF0FF0BC2F3090350F82BB04FEA1C2C3F
:102630000BEB9222C2F3090B6BF30F0650F82CC080
:1026400001F0FF0B0CEB922C50F82BB0CCF30902ED
:102650000BEB9C2CCCF3090B090A6BF30F0701F071
:10266000FF0B63F31F4550F82BB062F31F460BEBD3
:102670009C2C4FEA112B0BF0FF0ECCF3090150F804
:102680002EE04FEA1B2B0EEB9C2CCCF3090E50F8DE
:102690002B006EF30F0800EB9C2CCCF309004FEAE3
:1026A0009C2B61F31F4760F31F48DFF8F4E0DDF86F
:1026B00004C04FEA35434FEA36424FEA37414FEA0A
:1026C000384023FB0ECCDFF8DCE022FB0ECCDFF839
:1026D000D8E021FB0ECC4FF4803E00E048E020FB28
:1026E0000ECCCDF800C0DFF8C4E0DDF808C023FB55
:1026F0000ECC20FB1ECEDFF8B8C022FB0CEE21FB77
:102700001CECCDF804C04FF0010C23FB0CF3DFF8F8
:10271000A4C022FB0C32284B21FB0321274A20FBBB
:102720000210DDF800C00290ACF500300F992218BD
:10273000531A10994FEAE37CA3FB014E0CFB01E115
:10274000002203FB021114F1004241F100010F903D
:102750004C001198A10251FB10F0159920F38F0045
:1027600021F819000A9809F1010948453FF738AFE7
:1027700016990298886016990198C8601698C0F852
:102780001CB01698046116990F9848611699129812
:10279000886117B00020BDE8F08F0000B000002075
:1027A00015001C000A000F00030006002A00240088
:1027B00030002E00060003000F000A001C00150068
:1027C0002DE9F74F92B005461069059050690E90BB
:1027D00090691090D069079090680190D06802903D
:1027E0001446106B0F90E08C4FF0000B002840F364
:1027F000DC80608D012800F0E98000EB40012A7840
:102800006B5C15F800C002EB036215F8103015F888
:1028100011101B0403EB0C23D618C0EBC00215F8F3
:102820002030AA5C03EB02620B0400EB8001695CC0
:1028300005EBC00503EB0121114403916C48F1B293
:1028400050F8212007991144C1F30903320A63F3B8
:102850000F07D3B2120A50F8233002F0FF0C03EB3B
:102860009121C1F3090350F82CC0120A0CEB9121FD
:10287000C1F3090C6CF30F08DDF80CC050F82220EE
:102880000CF0FF0C02EB912150F82CC0C1F30902AF
:102890000CEB912C0399CCF30906090A66F30F0996
:1028A000CEB263F31F4750F8266062F31F4806EB71
:1028B0009C2C0E0A06F0FF0ECCF3090150F82EE016
:1028C000360A0EEB9C2CCCF3090E50F826006EF362
:1028D0000F0A00EB9C2CCCF309004FEA9C2CCDF89E
:1028E0001CC061F31F4960F31F4A424EDDF808C067
:1028F0004FEA37434FEA38424FEA39414FEA3A400C
:1029000023FB06CC3C4E22FB06CC3C4E21FB06CCE6
:102910004FF4803620FB06CEDFF8E4C0019E23FB97
:102920000C6620FB1C66DFF8DCC022FB0C6621FB7A
:102930001C6CCDF808C04FF0010C23FB0CF3DFF842
:10294000C8C022FB0C32314B21FB0321304A20FB53
:1029500002100190216AAEF50030A1B1059A4FF046
:10296000000C13180E9A0E909A1AA2FB016ED31740
:1029700003FB01E102FB0C1116F1004241F10001E1
:1029800049000591084681020F9851FB10F0218DF6
:1029900020F38F0001FB0BF213990BF1010B21F8CF
:1029A0001200E08C58453FF724AF0198A0600298D0
:1029B000E0600798E061059820610E9860611098CA
:1029C000A06115B00020BDE8F08F00BFF5E80260FF
:1029D000039094F8340010F0200F3FF42FAF3046EE
:1029E000FDF73CFC06460398FDF738FC039025E70D
:1029F000B000002015001C000A000F0003000600B4
:102A00002A00240030002E00060003000F000A00F8
:102A10001C0015002DE9F74F96B04FF0000A1898EA
:102A2000D0E9044011901898806912901898C069F4
:102A300009901898806801901898C06802901898BA
:102A4000006B14901898C08C0B901898006A139023
:102A50000B98002840F3FA80169850F8041B50F8A1
:102A6000042B039250F802BB16900846FDF7F6FBC4
:102A700004900398FDF7F2FB03905846FDF7EEFB38
:102A800000900498DFF8F0B1C0B25BF8201009980C
:102A900001440498020AC1F3090060F30F05880A93
:102AA000D1B25BF821100844110AC0F3090262F3A5
:102AB0001F45CAB24FEA354C5BF8222002EB902248
:102AC000080AC2F309015BF8200061F30F0600EB6E
:102AD0009220C0F3090161F31F4603994FEA364380
:102AE000C9B25BF8211001EB90200399C0F30902F1
:102AF000090A62F30F07CAB2090A5BF8222001F043
:102B0000FF0E02EB90205BF82EE0090AC0F30902E9
:102B10000EEB90205BF82110C0F3090E01EB902022
:102B2000C0F30901800A099000986EF30F08C0B243
:102B300062F31F475BF820E0099861F31F48864461
:102B400000984FEA3742000A0090CEF3090060F384
:102B50000F090098CDF84090C0B24FEA38415BF8B9
:102B6000200000EB9E2BCBF3090060F31F494FEAD6
:102B70009B2BCDF824B0DFF804E1DDF808B04FEA74
:102B800039402CFB0EBBDFF8F8E023FB0EBBDFF86F
:102B9000F4E022FB0EBBDFF8F0E021FB0EBB4FF4AC
:102BA000803E20FB0EBBCDF800B0DFF8E0E0DDF8A2
:102BB00004B02CFB0EBBDFF8D8E023FB0EBB4FF0BC
:102BC0004B1E22FB0EBBDFF8CCE021FB0EBBDFF877
:102BD000C8E020FB0EBBCDF808B04FF0010B2CFB7A
:102BE0000BFCDFF8B8B023FB0BC3DFF8B4C022FB4B
:102BF0000C322C4B21FB03212B4A20FB0210DDF869
:102C000000B00190ABF57A3011992218521A13993D
:102C10004FEAE27CA2FB014B0CFB01B1002302FB5B
:102C2000031114F1004241F1000111904C0014987D
:102C3000610251FB10F0179920F38F0021F81A0060
:102C40000B980AF1010A50453FF706AF1899019811
:102C5000886018990298C86018990998C8611898EE
:102C6000046118991198486118991298886119B0EF
:102C70000020BDE8F08F0000B000002024002D00EF
:102C800015001C000A000F00030006003F0037007B
:102C9000490045004500490037003F000600030099
:102CA0000F000A001C0015002D0024002DE9F74F2D
:102CB00094B0044610690690506910909069129083
:102CC000D069099090680290D06801901546106B09
:102CD0001190E88C4FF0000A002840F33081688D95
:102CE000012800F03D81C0B200EB40012278635C16
:102CF00014F800C002EB036214F8103014F811103D
:102D00001B0403EB0C2302EB030BC0EBC00314F812
:102D10002020E35C02EB03620B0400EB800114F85B
:102D200001C003EB0C231A44039214F8302000EB8B
:102D3000C000205C04EB410402EB0020CDF8000051
:102D400095480BF0FF0150F8212009990A44C2F37D
:102D500009034FEA1B2163F30F06CBB2090A50F8AF
:102D6000233003EB9222C2F3090363F31F46CBB275
:102D7000090A50F8233050F8211003EB9222C2F3D5
:102D8000090301EB922163F30F07C1F3090262F318
:102D90001F47039A4FEA364CD2B24FEA374350F8F6
:102DA000222002EB9121039AC1F3090E4FEA122B64
:102DB0000D9A6EF30F020BF0FF0E50F82EE00EEBA3
:102DC00091214FEA1B2EC1F3090B6BF31F420EF04A
:102DD000FF0B0D9250F82BB04FEA32420BEB9121D2
:102DE0004FEA1E2BC1F3090E50F82BB06EF30F08FB
:102DF0000BEB912BCBF309014FEA9B2BCDF824B0C1
:102E0000DDF800B061F31F480BF0FF0B4FEA3841CB
:102E100050F82BE0DDF824B0F344DDF800E04FEA91
:102E20001E2ECDF800E0CBF3090E6EF30F09CDF89E
:102E30003C90DDF800E04FEA9B290EF0FF0B50F8C4
:102E40002B0000EB090BDDF83C90CBF3090060F39D
:102E50001F494FEA9B2BCDF824B0DFF840E1DDF8A5
:102E600004B04FEA39402CFB0EBBDFF834E123FB02
:102E70000EBBDFF830E122FB0EBBDFF82CE121FBBB
:102E80000EBB4FF4803E20FB0EBBCDF800B0DFF848
:102E90001CE1DDF808B02CFB0EBBDFF814E123FBCE
:102EA0000EBB4FF04B1E22FB0EBBDFF808E121FBEF
:102EB0000EBBDFF804E120FB0EBBCDF804B04FF0F1
:102EC000010B2CFB0BFCDFF8F4B023FB0BC3DFF88A
:102ED000F0C022FB0C323B4B21FB03213A4A20FB82
:102EE00002100290DDF800B0296AABF57A30A1B18A
:102EF000069A4FF0000C1318109A9A1AA2FB01BE02
:102F0000D31703FB01E102FB0C111BF1004241F15D
:102F1000000149000691109008464102119851FBAA
:102F200010F0298D20F38F0001FB0AF215990AF1A8
:102F3000010A21F81200E88C50453FF7D0AE029804
:102F4000A8600198E8600998E861069828611098DF
:102F500068611298A86117B00020BDE8F08F00BF2B
:102F600054F804BB54F8040B039054F8020B00907F
:102F700095F8340010F0200F3FF4E2AE5846FDF70C
:102F80006DF983460398FDF769F903900098FDF702
:102F900065F90090D4E60000B000002024002D0068
:102FA00015001C000A000F00030006003F00370058
:102FB000490045004500490037003F000600030076
:102FC0000F000A001C0015002D00240002480068B4
:102FD000406D00F0A3B8000000000020014800F0A0
:102FE0009DB80000B404002001681823CAB2103A4A
:102FF000B2FBF3F2054B6FF30901032A9B5CC36537
:1030000000D9091D81650846704700002871000835
:1030100010B5014600208B698A6A4FF0C07453B125
:10302000B3F5005F15D072B1012A0CD0022A0AD084
:10303000032A09D104E01AB1012A06D0022A03D1D9
:10304000C96AC90100D5012010BDC96AA142FAD0E0
:1030500010BD002AF7D0012AF2D0022AF3D0032AA9
:10306000F3D010BD30B50468256825F480252560AF
:10307000046863608368402B036803D0996000682C
:10308000C26030BD9A600068C16030BD70470120E9
:1030900000F0B6B990F83510022903D080214165BF
:1030A00001207047052180F835100068016821F083
:1030B000010101600020704770B504002BD094F826
:1030C0003500022826D02068016821F00101016046
:1030D00020680025056020684560206885602068BC
:1030E000C560206805612168212048612046FFF7FE
:1030F0007BFFE56325646564A564E564256594F854
:103100005C203F2191408160656584F8355084F8EA
:103110003450002070BD012070BD00002DE9F8433F
:1031200004464FF00009CDF8009063484FF4165163
:10313000A56D0068B0FBF1F72E6894F85C100820CC
:1031400000FA01F131420FD021680A6852070BD50D
:103150000A6822F004020A6094F85C108840A860B3
:10316000606D40F00100606594F85C104FF001085C
:1031700008FA01F0304208D021684969090604D5EF
:10318000A860606D40F00200606594F85C10042057
:103190008840304208D021680968890704D5A860B2
:1031A000606D40F00400606594F85C101020884069
:1031B000304218D021680968090714D5A860206832
:1031C0000168490304D50068000308D5A16C07E035
:1031D0000168C90503D4016821F008010160216C70
:1031E00009B12046884794F85C102020884030427E
:1031F00031D021680968C9062DD5A86094F835003A
:1032000005282068016806D0490347D500680003F7
:103210001DD4616C1CE021F0160101602068416939
:1032200021F080014161206C08B9A06C20B12068B8
:10323000016821F00801016094F85C103F2088408B
:10324000A86084F8349084F83580216D1FE0E16B2C
:1032500009B120468847606D00282BD0606DC007FB
:1032600014D0052084F835002068016821F00101A0
:1032700001600098401C0090B84203D820680068A4
:10328000C007F6D184F8349084F83580E16C0029C9
:1032900010D001B02046BDE8F04308470168C905D9
:1032A000D5D4016821F01001016084F8349084F8CD
:1032B0003580CCE7BDE8F883280000202DE9F041F7
:1032C000044600F091F906465CB1002584F83450BC
:1032D000022084F835002068016821F001010160B6
:1032E0000DE00120BDE8F08100F07EF9801B05288B
:1032F00005D920206065032084F83500F2E72068B6
:103300000068C007F0D12268116820480140D4E964
:1033100001031843D4E90336334318436369184360
:10332000A3691843E3691843236A18430843616A91
:10333000042903D1D4E90B13194308431060206812
:103340004069666A20F0070130460E4301270428D1
:103350000CD1A06A0643E06A40B12046FFF758FE50
:1033600020B14020606584F83570BAE72068466176
:103370002046FFF739FE94F85C203F2191408160A0
:10338000656584F835700020ACE700003F8010F0E0
:103390002DE9F0410446866D90F83400002501289F
:1033A0000DD0012084F8340094F835700020012FEE
:1033B00007D084F8340002252846BDE8F0810220B9
:1033C000FBE7022784F8357060652046FFF74AFE68
:1033D00094F85C103F208840B0602068016841F09C
:1033E00016010160206C20B12068016841F00801DD
:1033F00001602068016841F001010160DCE770476D
:10340000044910B50A68024202D00860FFF7F7FFCE
:1034100010BD0000143C01402DE9F84F00224FF090
:10342000010803254FF00F0E0B6808FA02F4234041
:10343000A3426ED14E68012E05D0022E03D0112E6C
:1034400001D0122E12D186684FEA420C05FA0CF711
:10345000BE43CF6807FA0CF7374387604668A64338
:103460000C79C4F30014944034434460C668570098
:1034700005FA07FC8C6826EA0C06BC403443C4609D
:103480004C68022C01D0122C13D1D40800EB840418
:10349000A346D4F8209054074FEAD46A0EFA0AF6ED
:1034A00029EA06090E6906FA0AF646EA0906CBF881
:1034B000206006680C7926EA0C0604F00304BC4080
:1034C000344304604C68E40065D5364C266846F405
:1034D00080462660246822F0030604F480440094A9
:1034E000314C3444A446D4F808489607370F0EFAF6
:1034F00007F6B4432D4EB04201D1002624E02C4EF5
:10350000B04201D101261FE02A4EB04202D102266C
:103510001AE040E0284EB04201D1032614E0274EC5
:10352000B04201D104260FE0254EB04201D105265C
:103530000AE0244EB04201D1062605E0224EB042F8
:1035400001D1072600E00826BE402643CCF80868D3
:103550001E4E34684F689C43FF0300D51C43346003
:103560001A4C241D26684F689E43BF0300D51E4396
:103570002660164E083634684F689C43FF0200D51B
:103580001C433460114E0C3634684F689C43BF02B4
:1035900000D51C433460521C102AFFF445AFBDE82F
:1035A000F88F000044380240003001400000024023
:1035B0000004024000080240000C024000100240DB
:1035C0000014024000180240001C0240003C014070
:1035D000426931EA020200D10904816170470AB1EF
:1035E000816170470904FBE701488068704700006B
:1035F000080000202DE9FF41044600688168009121
:103600007749784E4FF04027884201D1324600E09A
:103610003A469268019240688846029001D130464D
:1036200000E038464068039060684FF00105B0F54F
:10363000007F1CD0D8B1900705D50398000602D5AD
:10364000204601F0C5F80098C0070FD00298400648
:103650007FD521682046CA68E16A8B1CE3620A8034
:10366000618E491E6186618E002967D071E00098E5
:10367000800719D50298000616D5616A20468A1C73
:10368000626222680988D160618D491E6185618D01
:1036900051B901684A6822F0A0024A60418E19B906
:1036A00080F8415000F0A0F80198C00705D00398B9
:1036B000400602D5204601F05BF80198400622D56D
:1036C000039880061FD52168414501D1304600E0AE
:1036D0003846406820F0600101D1304600E03846AD
:1036E00041602068416821F0A00141602068C16804
:1036F0008068019084F84150606C40F00200606482
:10370000204600F072F80098000767D502988006FE
:1037100064D52068416821F0A001416021684145DD
:1037200001D1304600E03846406820F0600000D00B
:103730003E46706020688068009043E001684A68F7
:1037400022F060024A60418D19B980F8415000F0C2
:103750004BF8009840061ED5029880061BD52068BD
:10376000416821F0600141602168414501D1304646
:1037700000E03846406820F0A00101D1304600E06A
:103780003846416084F84150606C40F0020060644B
:10379000204600F02AF8019800071FD503988006FC
:1037A0001CD52168414501D1304600E038464068CB
:1037B00020F0A00000D03E4670602068416821F0F3
:1037C0006001416084F84150606C40F00400606426
:1037D00004B02046BDE8F04100F007B8BDE8FF8125
:1037E00000380040003400407047704790F84100B6
:1037F000704700002DE9F047040004D094F8410020
:10380000002718B109E00120BDE8F08784F8407076
:103810005A486063204600F0BBF8022684F84160F5
:103820002068C16940F6BF7821EA0801C1612068BB
:1038300006626069524D4FF40079022830D0E0688A
:10384000A0B12020A860A068202802D8A868400065
:10385000A860012000F084FA2861216949451DD142
:10386000E1680029A96803D0890002E01020E9E797
:10387000C900B0FBF1F000EB800061694000B0FBD3
:10388000F1F0401D0A21B0FBF1F101F00100E96007
:10389000091A49080002C5E9001003E0A968E8E731
:1038A000C5E900672868811EFE2904D3606C40F0DA
:1038B00010006064A7E76A6821691043014320682B
:1038C0000162D4E901010843A269E1681143226859
:1038D0000843D36923EA0803184340F40060D06129
:1038E000206A01283FD1274860632748D4F800C0E8
:1038F000264A4FF04023844501D1944600E09C467F
:10390000DCF81CC02CEA080C01D1114600E0194675
:10391000C1F81CC02168814201D1114600E019465E
:103920000E622168814201D1114600E01946C96941
:10393000666889B24E451CD0DEB1EF602689B4F8C6
:103940000CC0AD8946EA0C06B4F818C04CEA050C68
:1039500046EA0C06B5B20D4345F400612568854280
:1039600000D01A46D1616764012084F8410000202C
:103970004AE74FF48076EE60E0E7000087480008F1
:1039800014000020F53500080038004000340040E5
:1039900070B586B0044614216846FDF7B6F91C4997
:1039A0002068884232D11B480024016841F400415C
:1039B0000160006800F40040059016481038016866
:1039C00041F001010160016801F001010591016808
:1039D00041F0040101600068022500F00400059038
:1039E00010200090CDE901540626CDE90346694632
:1039F0000948FFF711FD4FF4A4500090CDE90154A0
:103A0000CDE9034669460548FFF706FD06B070BDDF
:103A1000003C0040403802400000024000080240E4
:103A2000F8B5044681B17AB194F84000012809D074
:103A3000012684F8406094F841000025012805D053
:103A400084F840500220F8BD0120F8BD042084F81D
:103A500041006564E1622068C06900F00700032846
:103A600013D0052811D022866286E16B1E480864B7
:103A7000E16B1E48C863E16B1D48C8642168C869D2
:103A8000C0F30120032807D009E04FF6FF7000EAD9
:103A9000420020866086E8E7C86888680090238E28
:103AA0000C31E26AE06BFFF773FC40B154F8440F4D
:103AB00040F0080044F8040966702570C4E72068E7
:103AC000C169490503D4C16941F48061C1612068BD
:103AD0004168C90703D1416841F00101416084F8A0
:103AE00040500020F8BD00007D48000859480008FB
:103AF00031480008154910B5A1F18000FDF700FB21
:103B0000134C12482168203000EB411020220F494D
:103B1000FDF7E2F82368002201217F2B0D4823687E
:103B200005D0FF2B07D02068401C206010BD5B1C17
:103B30002360626003E04FF400636360226000680A
:103B400001750068BDE8104001F038BFDC46002078
:103B50008C00002000000020144910B5A1F58070F1
:103B6000FDF7CEFA124C11482168203000EB4110CD
:103B700020220E49FDF7B0F82368002101220D48EC
:103B80007F2B06D02368FF2B05D02068401C2060C7
:103B900010BD616002E04FF4006363602160006863
:103BA00002750068BDE8104001F008BFDC46002047
:103BB0008C0000200000002070470000024881684F
:103BC0000278114481607047080000200B4810B54E
:103BD000016841F400710160016841F48061016095
:103BE000016841F480710160032000F08DF800202D
:103BF00000F006F800F03EF8002010BD003C024046
:103C000010B5014688B00022192000F05DF8192097
:103C100000F04CF813480024016841F001010160F4
:103C2000006805A900F001000690684600F0FEF962
:103C300000F01CFA0C494000B0FBF1F10C480B4AB3
:103C4000491E026040F2E732C0E90324C0E90114D2
:103C500000F0FCFB10B1012008B010BD044800F0DA
:103C600025FCF9E74438024040420F0000000140C3
:103C7000A80700200C4882B0016841F4804101602F
:103C8000006800F4804000900748001F016841F080
:103C9000805101600068002200F0805000900F21E8
:103CA000901E02B000F010B844380240002809DB32
:103CB00000F01F02012191404009800000F1E02046
:103CC000C0F8001170470000F0B40E4B1B680C46A2
:103CD000C3F30223C3F10705042D00D90425191DE0
:103CE000072901D2002300E0DB1E012606FA05F1B8
:103CF000491E214099409E40761E16403143F0BC3B
:103D000001F0D4B90CED00E0064900F007020868A4
:103D10004FF6FF03184040EA0220034A10430860B0
:103D2000704700000CED00E00000FA05032101607F
:103D30000A490A68C2F3881242600968C1F3027135
:103D4000816006497C390968044A01F4F811143A83
:103D5000126802F440720A43C2607047843802401D
:103D600001460020012907D11049096811F400011A
:103D700003D0012900D10E4870470C48001F01688C
:103D80000068490200F03F0001D50A4900E00A49F5
:103D9000064AB1FBF0F07C321168C1F3881141434F
:103DA0001068C0F30270B1FBF0F0704708380240B1
:103DB0000080BB0000127A000024F4002DE9F843D3
:103DC000054600684FF00109C1074FF0000601D118
:103DD000400727D5DFF80C81C8F86860FFF704FCBE
:103DE0000746414C05E000BFFFF7FEFBC01B022861
:103DF00057D820680001F7D468688101287A41EA21
:103E00000070394984310860C8F86890FFF7ECFB0E
:103E1000074604E0FFF7E8FBC01B022841D82068F2
:103E20000001F7D52878800752D52F484030016827
:103E300041F08051016000682C4C00F080500090EF
:103E4000206840F480702060FFF7CEFB074604E056
:103E5000FFF7CAFBC01B022823D82068C005F7D58E
:103E6000214C7034206810F4407020D0A98901F4EE
:103E7000407181421BD020681D4920F44070C1F878
:103E800000900E6020602068C00710D0FFF7ACFBE8
:103E9000064641F2883707E0FFF7A6FB801BB842D1
:103EA00002D90320BDE8F88320688007F4D5E968CB
:103EB0000D48C1F301220830032A0BD0016821F418
:103EC000F81101602068A989C1F30B010843206043
:103ED0000020E7E70268074B22F4F81219400A4372
:103EE0000260EFE7000047420038024000700040E7
:103EF000400E4742FFFCFF0F2DE9F0470E4605003C
:103F000065D0DFF81481D8F80000F7B200F00F0098
:103F1000B04207D288F80070D8F8000000F00F0017
:103F2000B04254D128683D4C810712D5400703D5D3
:103F3000206840F4E05020602878000703D520680E
:103F400040F4604020602068A96820F0F000084339
:103F500020602878C0072DD03049686808390128CA
:103F600012D0022813D0032811D00968890700292C
:103F70002DDA216821F0030101432160FFF734FBB2
:103F8000814641F2883A0EE009688903EFE7096843
:103F90008901ECE7FFF728FBA0EB0901514502D9A5
:103FA0000320BDE8F0872068696800F00C00B0EBE2
:103FB000810FEFD1D8F80010404601F00F01B14257
:103FC00007D90770006800F00F00B04201D001204F
:103FD000E7E72878400705D52068E96820F4E05035
:103FE000084320602878000706D52068296920F456
:103FF000604040EAC100206000F048F82168084AAB
:10400000C1F30311515CC8400649086006480068C6
:10401000FFF7F6FD0020C4E7003C024008380240EC
:1040200030710008280000200C0000200F220260E0
:104030000C4A136803F003034360136803F0F003B2
:104040008360136803F4E053C36012684FF4E053D5
:1040500003EAD20202610448006800F00F00086021
:104060007047000008380240003C024004480549FF
:1040700000680968044AC1F34231515CC840704786
:10408000280000200838024040710008154810B58B
:10409000006810F00C02144813D04110042A0FD00D
:1040A000082A0ED10F4C241F2268236802F03F0219
:1040B0005B0207D52068C0F38810A0FB010106E071
:1040C000084610BD2168C1F38811A1FB000100233F
:1040D000FCF7D1FD2168C1F30141491C4900B0FB47
:1040E000F1F010BD083802400024F4002DE9F84F2B
:1040F000040076D02078DFF838A3CE4DC00749D031
:10410000DAF800105046C1F38101012908D0006897
:10411000C0F3810002280AD1281D0068400206D59C
:104120002868800336D560680028E2D032E06068F5
:10413000B0F5803F10D0B0F5A02F286810D020F443
:1041400080302860286820F4802028606068A0B152
:10415000FFF74AFA06460CE0286840F48030F4E79E
:1041600040F480202860F7E7FFF73EFA801B6428C0
:1041700073D828688003F7D50CE0FFF735FA0646B8
:1041800005E000BFFFF730FA801B6428F0D82868EC
:104190008003F7D42078DFF8A08280074FF0000971
:1041A0003ED5DAF80010504611F00C0F09D0006827
:1041B000C0F3810002280BD19D48001F0068400217
:1041C00006D42868800715D5E068012809D111E0D8
:1041D000E068B8B10120C8F80000FFF705FA06460C
:1041E00005E020E1FFF700FA801B0228C0D828680C
:1041F0008007F7D52868216920F0F80040EAC1005F
:1042000028600DE0C8F80090FFF7EEF9064604E0DC
:10421000FFF7EAF9801B02281FD828688007F7D427
:104220002078000722D5824E844861696C3671B1CE
:1042300001210160FFF7D8F9074604E0FFF7D4F940
:10424000C01B022809D830688007F7D50EE0C0F8F7
:104250000090FFF7C9F9074605E082E0FFF7C4F9CF
:10426000C01B02287DD830688007F7D4207840072B
:1042700068D5DFF8BCB100270BF1380BDBF8000084
:10428000C0000BD4DBF8001041F08051CBF80010D7
:10429000DBF80000012700F080500090684E306885
:1042A000C00510D4306840F480703060FFF79CF98E
:1042B000009005E0FFF798F90099401A022850D8BD
:1042C0003068C005F6D55A4EA068683601280FD070
:1042D0000528306810D020F001003060306820F0F0
:1042E00004003060A068B8B1FFF77EF900900FE0DD
:1042F000306840F00100F4E740F004003060F7E778
:10430000FFF772F90099411A41F28830814266D86C
:1043100030688007F4D50EE0FFF766F9009007E0FB
:10432000FFF762F90099411A41F28830814256D86C
:1043300030688007F4D42FB1DBF8001021F08051F1
:10434000CBF80010A069D0B3DAF800205146C2F3D0
:104350008102022A4AD00228484607D0C8F86000E5
:1043600000E03CE0FFF740F904463BE04746C8F870
:104370006000FFF739F9064605E000BFFFF734F9A2
:10438000801B02282BD828688001F7D4D4E90701C4
:104390000843A16A2B4A490802EB0141626A41EADB
:1043A0008211084394F82C1040EA01612048001F54
:1043B000016001203866FFF717F9044605E034E094
:1043C000FFF712F9001B022809D828688001F7D5E9
:1043D0002BE000BFFFF708F9001B022802D90320D9
:1043E000BDE8F88F28688001F4D41EE00128F7D0DA
:1043F0000868E26900F48001914214D1226A00F059
:104400003F0191420FD147F6C071626A014091426B
:1044100009D1A26A00F44031914204D1E16A00F06E
:104420007060884201D00120DAE70020D8E7000060
:10443000083802400038024000004742800E4742E0
:10444000007000400000FFFF7047704710B5040087
:1044500003D094F83D0010B107E0012010BD00200A
:1044600084F83C00204600F00DF8022084F83D005E
:10447000211D206800F00AFD012084F83D00002085
:1044800010BD000008B500680649884208D10648FA
:10449000016841F010010160006800F01000009018
:1044A00008BD000000100040403802400168CA68A2
:1044B00042F00102CA600068816801F00701062924
:1044C00003D0016841F0010101600020704770478E
:1044D00070B50446006801694FF00005C9438907BB
:1044E00015D4C168C943890711D4E91E01610120AF
:1044F0002077206880698007204602D0FFF7E7FF19
:1045000004E000F098F8204600F096F8257720683F
:104510000169C943490717D4C168C943490713D47E
:104520006FF004010161022020772068806910F497
:10453000407F204602D0FFF7CAFF04E000F07BF87E
:10454000204600F079F8257720680169C9430907FA
:1045500016D4C168C943090712D46FF0080101617C
:10456000042020772068C0698007204602D0FFF72A
:10457000AEFF04E000F05FF8204600F05DF825771C
:1045800020680169C943C90617D4C168C943C9066F
:1045900013D46FF010010161082020772068C069F2
:1045A00010F4407F204602D0FFF791FF04E000F0B6
:1045B00042F8204600F040F8257720680169C94399
:1045C000C90708D1C168C943C90704D1891E01615F
:1045D000204600F033F820680169C943090609D470
:1045E000C168C943090605D46FF080010161204606
:1045F000FFF72AFF20680169C943490609D4C16849
:10460000C943490605D46FF040010161204600F01E
:104610001FF820680169C94389060BD4C168C943E2
:10462000890607D46FF0200101612046BDE8704083
:10463000FFF70BBF70BD704770470000006803496B
:10464000884201D1FFF7BABA70470000000001406C
:104650007047704770B5026804461068D1685369A6
:1046600010F00F0F53D003F0010501F490762E43A4
:104670005FD0C20705D0CA0503D5E26B42F0010244
:10468000E263420705D5DA0703D0E26B42F002028B
:10469000E263820705D5DA0703D0E26B42F0040239
:1046A000E263020707D501F020022A4303D0E26B40
:1046B00042F00802E263E26B002A34D0800604D59F
:1046C000880602D5204600F05BFC20684069E16B5B
:1046D000C0F3801001F008010143204624D000F00F
:1046E00041FC2068416949061AD5416921F0400121
:1046F0004161606BA0B11B490165606BFEF7CAFCAC
:10470000002810D0606B016DBDE87040084783063B
:104710000FD58B060DD52046BDE8704000F030BCAB
:104720002046FFF796FF70BDFFF793FF0020E06380
:1047300070BD030606D50B0604D52046BDE87040C3
:1047400000F069BC4006F3D54806F1D5D168204693
:1047500021F04001D160202184F8391000F005F8E3
:1047600070BD0000554F000870477047FEE700001D
:1047700070B515490268154B4FF040248A4201D1AB
:104780001A4600E02246D568C26A961CC6621580A9
:10479000428E521E4286428E002A14D102688A42FC
:1047A00001D1194600E02146496821F0600100D09E
:1047B00023465960418D002905D14FF0010180F851
:1047C0004110FFF711F870BD003800400034004080
:1047D00070B5416A144B8A1C426205680988134A05
:1047E0004FF040249D4201D1154600E02546E96086
:1047F000418D491E4185418D002914D1016899429E
:1048000001D1114600E02146496821F0A00100D005
:1048100022465160418E002905D14FF0010180F8F8
:104820004110FEF7E1FF70BD003800400034004049
:1048300010B5806B01684A6822F003024A600021CB
:1048400041854186012180F84110416C41F0080109
:104850004164FEF7CAFF10BD10B50146806BC969FF
:1048600049B901684A6822F001024A600021418684
:10487000012180F84110FFF73DF910BD10B5806BA4
:10488000FFF76AF910BD7CB501680446886800909E
:1048900094F841000125042834D10098C00718D0AD
:1048A0004868C043400614D4C9682046E26A1180B3
:1048B000E16A891CE162618E491E6186618E41B99F
:1048C00001684A6822F060024A6080F84150FFF7B0
:1048D00011F90098400615D520684168C94389063A
:1048E00010D4416821F0600141602068C16880688F
:1048F000019084F84150606C40F0020060642046F2
:10490000FEF773FF94F84100032834D10098800724
:1049100019D521684868C043000614D4626A20464D
:104920001288CA60616A891C6162618D491E618555
:10493000618D41B901684A6822F0A0024A6080F89E
:104940004150FFF739F90098000714D520684168F5
:10495000C94389060FD4416821F0A0014160206855
:104960008068009084F84150606C40F004006064FE
:104970002046FEF73AFF7CBDF0B587B014216846AB
:10498000FCF7C3F926480024016841F0800101606A
:10499000016801F080010591016841F004010160A6
:1049A000016801F004010591016841F00101016015
:1049B000016801F001010591016841F00201016007
:1049C000016801F002010591016841F008010160F0
:1049D0000068144F00F008004FF210060590002206
:1049E00031463846FEF7FBFD01250F480095CDE91D
:1049F000010469460D48FEF70FFD0096CDE901540C
:104A0000694638460394FEF707FD05221146062045
:104A1000FFF75AF90620FFF749F907B0F0BD00008B
:104A200030380240000C024000001110000002402B
:104A3000FEE77047DFF824C0536C0C3263451CBF9F
:104A400004207047536B13F4807F01D0D36B184759
:104A5000202013F0800F08BF30207047CDB5E8B597
:104A60002DE9F0470027C760076147618761C7618B
:104A7000076247628762C762076347638763C763EA
:104A8000076400F10C044764DFF8F08006463D46F9
:104A900039484146E763FCF78DFB01280CBFC4F899
:104AA0003880A563E5606560A5602560A561256126
:104AB0006561708920853089608565633088304BF9
:104AC000DFF8C0C0012804D0002818BF022718D082
:104AD0002DE01878002804BF2B494FF4807026D1B0
:104AE0000A68401E4FEA825802EA0C0909EB98084E
:104AF000C2F30952424441F8042BF1D1012018704D
:104B000015E01878012804BF1F494FF480700ED1BA
:104B10000A68401E4FEA825802EA0C0909EB98081D
:104B2000C2F30952424441F8042BF1D11D70708840
:104B300038B1012818BF7F1C03D1606B40F0200002
:104B40006063208D012804BF608D012803D1606B54
:104B500040F040006063706828B1606B40F0100066
:104B6000606370682062A5851FB9606B00F18000EA
:104B700060633846BDE8F087C2A507F4CDB5E8B557
:104B8000AC00002000FC0F00B000002070B50D4606
:104B90002DED028B00F10C0400F14001406C6A4ADB
:104BA000002690421EBF0420BDEC028B70BD086839
:104BB00020F480720A602888052818BF06280BD0C8
:104BC000072818BF012807D0022818BF032803D0E0
:104BD000042818BF082640D1A38C83423DD022F080
:104BE0000F0008602A8840EA020010F0400F0860B9
:104BF0001CBF10F0200F10F0100F00F00F0016D0A7
:104C000008282AD2DFE800F0290A0C0E1004060852
:104C10004E480AE04E4808E04E4806E04E4804E0A0
:104C20004E4802E04E4800E04E48E06315E0082898
:104C300013D2DFE800F0120A0C0E100406084A48EE
:104C4000F3E74A48F1E74A48EFE74A48EDE74A48C0
:104C5000EBE74A48E9E74A48E7E7B4F92C20B5F919
:104C60000400824203D1A28C2B889A4260D010F1BA
:104C70000C0F04DA6FF00B00A880403656E03328A2
:104C800003DD3320A880403650E0DFED3E8A09780E
:104C900001F00F01B0EE688A082927D2DFE801F0A1
:104CA0002613181D2204090EF3EE008A9FED368AA2
:104CB0001CE0F2EE0C8A9FED358A17E0F2EE0A8ACC
:104CC000B2EE008A12E0F2EE068A9FED318A0DE024
:104CD000F2EE048AB7EE008A08E0F2EE028A9FED57
:104CE0002D8A03E0F1EE0C8AB4EE008A00EE100A81
:104CF000B3EE041AB8EEC00AC0EE010AB2EE040A1E
:104D000000F0E4F920EE088A9FED230A70EE680AAD
:104D1000B0EE000A00F0DAF920EE080A00F008FD13
:104D2000BCEEC00A84ED0C0AA888A0852888A0845F
:104D30006888E0841EB9606B40F480706063304620
:104D4000BDEC028B70BD0000CDB5E8B5291A000896
:104D50001D1C0008E51E0008B92100089D2500085B
:104D6000152A0008211200080D1B0008611D00080B
:104D70003120000881230008C1270008AD2C00085D
:104D8000C5150008000000000000804226B49741CD
:104D900026B417406F12033F0000004210B55020A8
:104DA00080F31188BFF34F8FBFF36F8F02F026F8A7
:104DB00018B104494FF080500860002080F311883A
:104DC00010BD000004ED00E070B596B030216846DB
:104DD000FBF79BFF14210CA8FBF797FF00251F484A
:104DE0001195129513951495016841F08051016059
:104DF000006800F0805015901948016841F4804126
:104E000001600068012600F4804015903004CDE96F
:104E1000006002248001CDE90640082008904FF48C
:104E2000A870CDE9090407200B906846FFF75EF9EA
:104E30000CA90F2081E831004FF4A0500F90E00240
:104E4000109005210CA8FFF757F8C020CDE91204F7
:104E5000119611A8FEF7B2FF16B070BD403802409F
:104E6000007000400548016841F470010160034989
:104E70004FF00060803908607047000088ED00E066
:104E80000148FFF725BB0000A8070020F0B5026825
:104E9000254C264D264E274F274B4FF0804CA042E5
:104EA00009D0604507D0A84205D0B04203D0B8422F
:104EB00001D0984204D122F0700E4A6842EA0E02F4
:104EC000A0421BD0604519D0A84217D0B04215D0DF
:104ED000B84213D0984211D0184DA8420ED0184DA8
:104EE000A8420BD0174DA84208D0174DA84205D0B4
:104EF000164DA84202D0164DA84203D122F44075A7
:104F0000CA682A434D6922F080022A4302608A68F7
:104F1000C2620A688262A04201D0984201D1096946
:104F2000016301214161F0BD000001400004004027
:104F300000080040000C0040000401400040014017
:104F4000004401400048014000180040001C00409F
:104F50000020004010B5806B0021C185C184FFF79F
:104F600078FB10BD0168CA6822F49072CA600168BB
:104F70004A6922F001024A61202180F83A10704704
:104F800010B590F83A10222901D0022010BD816896
:104F9000B1F5805F11D00169002901681FD049680F
:104FA00001F07F03816A4A1C82620B70C18D491E29
:104FB0000904090CC18518D02BE00269816A002A16
:104FC0000268526805D0D2B20A80816A491C8162A7
:104FD000ECE7C2F308020A80816A891CF7E74A6895
:104FE000816A4B1C83620A70E0E70168CA6822F09C
:104FF0002002CA600168CA6822F48072CA6001682F
:105000004A6922F001024A61202180F83A10FFF734
:10501000ABFB002010BD90F83910212901D00220EF
:1050200070478168B1F5805F016A0BD04A1C02624B
:10503000026809785160C18C491E0904090CC184B9
:105040000ED017E009880268C1F3080151600169B8
:105050000029016A02D0491C0162ECE7891CFBE7C8
:105060000168CA6822F08002CA600068C16841F025
:105070004001C160002070470148FFF7EBBA000013
:1050800014050020FEE74100080218BF04200A0EA4
:1050900018BF40F001004FF07F4232EA010108BF23
:1050A00040F00200012808BF052070470907090EDB
:1050B000002804DB00F1E02080F80014704700F0C5
:1050C0000F0000F1E02080F8141D704710B510EEBD
:1050D000100A2DED068BB7EE001A10EE901AB0EE06
:1050E000418A0022A0F5000CDFEDFE9A4FF000731C
:1050F000BCF1FE4F4FF07F4403EB410C80F0B481D4
:10510000BCF1804FC0F02082F74901449FEDF73A8F
:10511000B1F5005F40F2D48200F58021CB0C03F0A2
:105120000F0101EE901AC3F307137F3BA0EBC350AE
:10513000B8EEE12A00EE100A1A44DFEDED2AF0EE97
:10514000411A42EE221AF0EE613A70EE232A30EE56
:10515000632A12EE900A00F500606FF30B0001EE77
:10516000900A73EEE13A33EE804AC1EE223A22EE23
:10517000230A10EE100A00F500606FF30B0000EE3A
:10518000100A00EE612A00EE442A62EE232A70EE35
:10519000221A21EEA12ADFEDD73A02EE233A23EEBE
:1051A000023A20EE012A22EE811A03EE211A32EE93
:1051B000010A10EE100A00F500606FF30B0000EE1C
:1051C000100A72EE401A31EE812A9FEDCB1A60EE82
:1051D000011A9FEDCA1A20EE011A9FEDC90A02EECC
:1051E000001A31EE810A10EE100A00F500606FF32C
:1051F0000B0000EE100AC34871EEC01A31EE812A8E
:10520000784400EBC10090ED003AD0ED011A100196
:1052100001EE100AF8EEC12A32EE211A31EE001A20
:1052200031EE031A31EE221A11EE100A00F5006079
:105230006FF30B0009EE100A39EE621A31EE431AD1
:1052400031EE400A30EE610A32EE40AA10EE900ACA
:10525000002100F500606FF30B0008EE900A08468D
:1052600070EEE8AAFBF799FD29EE280A00F00C0180
:10527000F0EEC00A10EE900AB0F18B4F0DDD10EE8B
:10528000900AB4EB400F08D310EE100A4FF08B4297
:1052900062F31E0008EE900A13E069EE2A0A38EE67
:1052A000AA1A4AEE010A30EE201A11EE100A00F591
:1052B00000606FF30B0008EE900A30EE680A70EEA3
:1052C000209A0C20FBF769FD38EEA90AB5EEC00A5A
:1052D000F1EE10FA34BFFEEE000AF6EE000A30EEF0
:1052E000800ABDEEC00A10EE100A011100EE101A7D
:1052F000F8EEC00A00EE100AB8EEC00A38EEC00A96
:1053000030EE290ADFED801A9FED801A00EE211A97
:10531000DFED7F1A7F4900F00F0040EE011A21EE09
:10532000800A794401EB800191ED001A7A497944B1
:1053300001EB8001D1ED001A784901EE801A794421
:1053400001EB8000764990ED000A31EE001AB0EED4
:10535000E00A10EE100A884215DA10EE100AB4EBDB
:10536000400F10D39FED6F0A30EE800ADFED6E0A1A
:1053700020EE200A68EE010ABDEC068BBCEEC00AE6
:1053800020EE200A10BD10EE100A6849884243DA68
:1053900010EE100AB4EB400F3ED3BDEEE00A68EE0B
:1053A000010A10EE100A00EBD0725110C90501F18C
:1053B0007E5100EE101AA0EB6200C00560EE200ADC
:1053C00000F17E5000EE100A60EE808A18EE900A1E
:1053D000B4EB400F0FD1022000F02EFA00F00CFACF
:1053E00010EE101A18EE100ABDEC068B61F31E00C9
:1053F00000EE100A10BD18EE900A400011D018EE11
:10540000900AFFF740FE042808BF00F0FDF9B0EE57
:10541000680ABDEC068B10BDF5EEC00AF1EE10FA7D
:105420000FD2022000F008FA00F0EEF910EE101A88
:1054300018EE100ABDEC068B61F31E0000EE100A98
:1054400010BD022000F0F8F900F0D6F910EE101AA5
:10545000B0EE480A10EE100ABDEC068B61F31E0098
:1054600000EE100A10BD00BFBCF1804F6CD300BF2E
:1054700000F1FF43B3F1FE4F24D200BFB0EEC00AEB
:1054800010EE100AC1F3C7537F2B0DDB972BBFF62D
:105490003BAEC3F196034FF0010C0CFA03F3A3F1FA
:1054A000010C1CEA010F08D0012000F0C5F9BDEC89
:1054B000068BBDE8104000F097B90B4218BFBFEE55
:1054C000008A21E643001CBF4FF08073B3EB400F0E
:1054D00034D96FF01A02DFED161A20EE210A10EE11
:1054E000100A27E000000000001080C0ABAAAA3E0E
:1054F0000000803D7EE24C3E00B03842D49AB8BBFA
:105500003BAA38427C570000FC596337C9FF753A03
:105510001872313D1A5700004E570000BE56000069
:105520000000FC420000FE420000004B000040432F
:105530000000004D10F0004FA0D1E5E5A0F50003FC
:10554000B3F1FE4F21D2DFE503EB4103B3F1007F5E
:1055500011D3F5EEC00AF1EE10FA05D1430018BFE1
:10556000B4EB400F76D883E701F0004141F0FC51E5
:1055700000EE901A7CE7B3F1807F06D210EE903AED
:10558000A3F5000300EE903A72E720F000426FF0BE
:10559000FF4C604C02EB0C03A34210D321F00043FC
:1055A0009C44A4450BD3B0F17E5F18BF5FEA410C69
:1055B00050D0B2F1FF4F98BFB3F1FF4F05D9BDEC0A
:1055C000068BBDE8104000F00BB9B0F1FF4F0FD0D3
:1055D000C1F3C7527F2A09DB972A11DAC2F196027A
:1055E000012303FA02F2531E0B4205D0002208E009
:1055F00011F0004F55D128E00A4218BF012200D116
:10560000022210F5000F13D028B3B0F1004F26D0BE
:1056100010F1814F4FD04FF0FE42B2EB400F94BFDC
:1056200001200020012202EBE171884239D10CE017
:1056300011F0004F02D0012A38D032E0012A02BF17
:105640009FED350ABDEC068B10BD9FED340ABDEC15
:10565000068B10BD2FE011F0004F0CD121E0B1F10D
:10566000FF4F1ED011F5000F05D011F0004F15D0DF
:105670000AB1012A08D0022000F0DEF8BDEC068B4A
:10568000BDE8104000F0A2B8022000F0D5F800F00C
:105690009DF8BDEC068BB1EE400A10BD0AB1012A9F
:1056A00004D0B0EE690ABDEC068B10BDBDEC068BD4
:1056B0009FED1B0A10BDBDEC068BB7EE000A10BDB6
:1056C00030EE410AB5EE001A9FED172A00EE413A7E
:1056D000B6EE001A60EE001A00EE431A61EEC11A2F
:1056E0009FED101A20EE011A20EE020A9FED0F2AFC
:1056F00001EE820A71EE001A11EE900A00F50060C8
:105700006FF30B0009EE100A31EE491A31EE00AAD0
:105710009CE50000FFFF3F00000080FF0000807F4D
:105720000000008000B0B841D49A38BB3BAAB84111
:1057300010B52DED028BB0EE408A18EE100AFBF783
:105740000EFB01EE100A18EE100AB7EE000A78EE12
:10575000410A10F0004F4FF07F4010EE901A12D027
:10576000B1F13F4F24BF10EE901AB0EB410F12D2AF
:1057700010EE901AB1F17C5F1CDD10EE901AB0EBC8
:10578000410F17D314E0B1F13F4F07D910EE901A33
:10579000B0EB410F02D331EE401A0BE010EE901A3D
:1057A000B1F17C5F06DB10EE901AB0EB410F01D334
:1057B00031EE001A18EE100ABDEC028B11EE101A31
:1057C00061F31E0000EE100A10BD0000DFED030AB9
:1057D000B7EE001A81EE200A7047000000000000BA
:1057E00030EE200A70470000DFED020A80EEA00ACA
:1057F00070470000000000009FED020A20EE000A42
:1058000070470000000000709FED020A20EE000AC1
:10581000704700000000001002E008C8121F08C115
:10582000002AFAD170477047002001E001C1121F21
:10583000002AFBD170470000014908607047000052
:10584000B0040020EFF30580002800D0012070474D
:1058500008B5FEF7BBF9FFF7B7FAFFF78DF80E486A
:10586000016841F4001101600068002200F400109A
:10587000009005211120FEF727FA1120FEF716FAF5
:10588000FBF732FB054C2060204600F01BF96060FE
:1058900000F00CF8FEE70000303802400000002065
:1058A00001460020842900D0C81C704710B500F0C4
:1058B000C7FD002010BD41684FF0010009B100F0A4
:1058C000B0BE00F0A3BE000038B500240546009429
:1058D000FFF7B8FF90B16946284600F0FBFF0128AA
:1058E00001D0FF2038BD009888B10A494FF08050A0
:1058F0000860BFF34F8FBFF36F8F08E000231A4695
:105900001946284600F036FF012800D0FF24204623
:1059100038BD000004ED00E038B505004FF0000090
:1059200000900FD00024481C0ED001B10C46FFF7A8
:1059300089FFB8B16A460021284601F0B5F8012870
:1059400016D104E0802038BD4FF0FF34EFE7009817
:1059500080B109494FF080500860BFF34F8FBFF30B
:105960006F8F07E02146284601F0ECF8012801D0AE
:10597000FF2038BD002038BD04ED00E038B5436895
:105980004BB1012909D103200022009011460120CA
:1059900000F078FE38BD012901D0002038BD032277
:1059A0000021012000F04AFE040004D000231A4622
:1059B000194600F0DFFE204638BD000038B500244F
:1059C00005460094FFF73EFF90B16946284600F077
:1059D00081FF012801D0FF2038BD009888B10A4915
:1059E0004FF080500860BFF34F8FBFF36F8F08E018
:1059F00000231A461946284600F0BCFE012800D0B4
:105A0000FF24204638BD000004ED00E038B5050055
:105A10004FF0000000900FD00024481C0ED001B1C0
:105A20000C46FFF70FFFB8B16A460021284601F087
:105A30003BF8012816D104E0802038BD4FF0FF3438
:105A4000EFE7009880B109494FF080500860BFF33C
:105A50004F8FBFF36F8F07E02146284601F072F8A1
:105A6000012801D0FF2038BD002038BD04ED00E042
:105A70007FB50D4604464169B0F9080081B1A169BE
:105A800071B1FFF70DFFD4E905128DE80700D4E9E5
:105A900000102B46226901F078F9039004B070BD24
:105AA000FFF7FEFE03A9CDE90001208A2B4682B252
:105AB000D4E9001001F03CF9012801D00020EDE705
:105AC0000398EBE730B5054687B0102000F05CFA8C
:105AD0000446084860601C2207496846FBF7FCF84A
